:1000000021C045C044C043C042C0C0C540C03FC07D
:100010003EC03DC03CC03BC03AC039C038C0000003
:100020000000370000000000380001030000040059
:10003000000000003600020202020202010204086F
:100040001020100611241FBECFE5D2E0DEBFCDBFC9
:1000500010E0A0E6B0E0EEE3F1E102C005900D9201
:10006000AE3BB107D9F721E0AEEBB0E001C01D9285
:10007000A033B207E1F710E0C2E2D0E003C021975D
:10008000FE0151D8C132D107D1F7EFD556C8B8CF4C
:100090003FB7F8948091ED009091EE00A091EF00B1
:1000A000B091F00022B708B601FE05C02F3F19F04D
:1000B0000196A11DB11D3FBFBA2FA92F982F8827E8
:1000C000BC01CD01620F711D811D911D43E0660FC2
:1000D000771F881F991F4A95D1F70895CF92DF9215
:1000E000FF920F931F93CF93DF93F09023018091A2
:1000F000260190912701A0912801B0912901892B17
:100100008A2B8B2BD1F0C4DF00910D0110910E01D1
:1001100020910F0130911001601B710B820B930B2A
:100120000091260110912701209128013091290189
:100130006017710782079307D0F2AADF60930D0161
:1001400070930E0180930F0190931001E0912E01A6
:10015000F0912F01309759F040912A0150912B01D5
:1001600060912C0170912D018F2D0995F82EC09171
:100170000B01D0910C010BEF10E06801209759F1B1
:100180008BE0C81681E0D80631F1E881F98102845C
:10019000F385E02DCE010995F601819391936F01CE
:1001A00080912401909125018436910508F41C86E4
:1001B0008D85882361F04E855F856A817B81E8812A
:1001C000F9810280F381E02D2F2DCE0109950C805D
:1001D000DD81C02DD3CFC0910B01D0910C012097B0
:1001E00099F0F1E00B301F0779F0F80161917191FE
:1001F0008F01E881F9810484F585E02DCE01099510
:100200000C80DD81C02DEBCF8091F9009091FA0038
:100210009C012F5F3F4F3093FA002093F9004997DC
:100220000CF445C08FB7F8940091F1001091F200E2
:100230002091F3003091F4008FBF8091F5009091F0
:10024000F600A091F700B091F800081B190B2A0BDB
:100250003B0B21F401E010E020E030E08091F90058
:100260009091FA0068EE73E026D7BC01990F880BD5
:10027000990BA9019801FDD6309325012093240103
:100280001092FA001092F9002FB7F8948091F100C3
:100290009091F200A091F300B091F4002FBF8093F1
:1002A000F5009093F600A093F700B093F800DF916B
:1002B000CF911F910F91FF90DF90CF900895CF9233
:1002C000DF92EF92FF92CF93DF936B017C01E0DE30
:1002D000EB01C114D104E104F10441F412C081E046
:1002E000C81AD108E108F108C851DC4FD1DE6C1BF7
:1002F0007D0B683E734068F3C114D104E104F1043E
:1003000071F7DF91CF91FF90EF90DF90CF9008953C
:1003100080E991E00895EF92FF920F931F93CF939E
:10032000DF933091BF003F5F232F27702093BF00E2
:10033000C0E830FFC0E021FDC064247009F0C06255
:10034000C05FFC018C010D5F1F4FE12CFF24F39473
:10035000D0E02785222331F0622F70E0C701BCD6A0
:1003600021E0260F2187822F90E00196BE01A3D6BF
:10037000911111C01682222319F06FEF620F61876D
:1003800031960E171F0729F7DF91CF911F910F911B
:10039000FF90EF90089591509683EDCF4F925F922A
:1003A0007F928F929F92AF92BF92CF92DF92EF9205
:1003B000FF920F931F93CF93DF932C01EB0168DE25
:1003C000F20126893789621B730B6A307105B8F315
:1003D000F8948A819B81181619060CF040C1E881B7
:1003E000F98168B3862E689484F838B33F7E38BBB1
:1003F000D9848E812D2D281B822F2E834C85042E8F
:10040000000C550BAA81BB817F85F888E9887F5F46
:10041000F394E3949F819884BA84AB841081C12CB7
:100420006C2D0C2D2C2D2081112788942111280F43
:1004300008F42FEF8195889470FD120F179588941A
:1004400071FD120F1795889472FD120F17958894FD
:1004500073FD120F1795889474FD120F17958894E9
:1004600075FD120F1795889476FD120F17958894D5
:1004700077FD120F17958894622F7111612F8D0DE2
:10048000162F002C88BA17FF38BB21816627889465
:1004900038BB2111290F88BA16FF38BB08F42FEF9B
:1004A0009195889438BBF0FC620F88BA15FF38BB71
:1004B00067958894F1FC620F38BB6795889488BA79
:1004C00014FF38BBF2FC620F6795889438BBF3FCCD
:1004D000620F88BA13FF38BB67958894F4FC620FEB
:1004E00038BB6795889488BA12FF38BBF5FC620F59
:1004F0006795889438BBF6FC620F88BA11FF38BB49
:1005000067958894F7FC620F38BB6795889488BA22
:1005100010FF38BB122FF110162F9B0D38BB00C0F7
:1005200088BA17FF38BB22816627889438BB21110F
:10053000290D88BA16FF38BB08F42FEFE40FF51F1A
:1005400038BBE0FC620F88BA15FF38BB679588940A
:10055000E1FC620F38BB6795889488BA14FF38BBFA
:10056000E2FC620F6795889438BBE3FC620F88BA9F
:1005700013FF38BB67958894E4FC620F38BB67951E
:10058000889488BA12FF38BBE5FC620F679588949F
:1005900038BBE6FC620F88BA11FF38BB67958894B8
:1005A000E7FC620F38BB6795889488BA10FF38BBA8
:1005B000122FE110162F919438BB9A0C002C88BA98
:1005C00017FF38BB20816627889438BB2111280F7C
:1005D00088BA16FF38BB08F42FEF8195889438BB92
:1005E00070FD620F88BA15FF38BB6795889471FD5E
:1005F000620F38BB6795889488BA14FF38BB72FDC8
:10060000620F6795889438BB73FD620F88BA13FF39
:1006100038BB6795889474FD620F38BB67958894E2
:1006200088BA12FF38BB75FD620F6795889438BB96
:1006300076FD620F88BA11FF38BB6795889477FD05
:10064000620F38BB6795889488BA10FF38BB122FA9
:100650007111162F8D0D38BB119709F013CF0A8039
:10066000DB81C02DBE010D2E000C880B990B2EE1F5
:1006700030E040E050E0C8D46B017C01CE016BE972
:1006800070E019D5292F30E0C901B0E0A0E0880F53
:10069000991FAA1FBB1F8C0D9D1DAE1DBF1D893E3E
:1006A00063E09607A105B10590F1885E9340A1092A
:1006B000B10922E0B695A795979587952A95D1F728
:1006C000AC0133E0440F551F3A95E1F7452F55270C
:1006D0002091BE0030E0820F931F840F951F409140
:1006E000F1005091F2006091F3007091F400292F15
:1006F0003327420F531F611D711D4093F10050932A
:10070000F2006093F3007093F4008093BE0078943D
:10071000BFDCF201778B668BDF91CF911F910F9138
:10072000FF90EF90DF90CF90BF90AF909F908F9011
:100730007F905F904F90089581E090E00895BC9A7B
:100740000895089580E880932301809163008111CA
:100750000EC01092E2001092E3008FEF8093E4004D
:10076000BDDC84E690E09093EA008093E9008091FC
:100770006300813071F41092E20080E88093E3001E
:100780001092E400ABDC82E390E09093EA00809367
:10079000E90080916300823071F48FEF8093E20072
:1007A0001092E3001092E40099DC89E190E09093CC
:1007B000EA008093E90080916300833041F48FEF79
:1007C0008093E2008093E3008093E40087CC089557
:1007D000809163008F5F80936300B4DF809163003A
:1007E000843018F010926300ADCF08958091EB0033
:1007F00091E089278093EB00811104C08091E6008D
:100800008111A0CF08954F925F926F927F929F9235
:10081000AF92BF92CF92DF92EF92FF920F931F930E
:10082000CF93DF9300D01F92CDB7DEB719821A8223
:100830001B828823A1F15A017B0101E010E0482EC0
:10084000512C712C612CF70161917F01662311F10C
:100850006801F1E0CF1AD108F501EC0DFD1D908083
:100860009920C1F070E06F5F7F4F90E080E0A301BE
:100870009201CAD39B01AC01892D90E00196BC0185
:1008800090E080E0C1D3E1E0F0E0EC0FFD1FEC0D63
:10089000FD1D80830F5F1F4F04301105A1F6698194
:1008A0007A818B810F900F900F90DF91CF911F91E4
:1008B0000F91FF90EF90DF90CF90BF90AF909F90FF
:1008C0007F906F905F904F9008956F927F928F927C
:1008D000CF92DF92EF92FF920F931F93CF93DF930C
:1008E000CDB7DEB762970FB6F894DEBF0FBECDBFAF
:1008F0008C016B017A01822FA801475F5F4FB8011D
:100900006A5F7F4F80DF3B01882ED8011C962C91B7
:10091000C701F7FE04C0882799278E199F09DA823C
:10092000C9829C838B839E838D83688A798A8A8A15
:10093000213041F5CE010196EEDC83E08D871F86E4
:100940001E86F7FE02C08DEF8D87D801ED91FC91D8
:100950000088F189E02DBE016F5F7F4FC8010995C6
:1009600062960FB6F894DEBF0FBECDBFDF91CF9178
:100970001F910F91FF90EF90DF90CF908F907F901D
:100980006F9008951C861B861A86198618861F820A
:10099000D4CFCF92DF92EF92FF920F931F93CF931A
:1009A000DF93CDB7DEB762970FB6F894DEBF0FBE08
:1009B000CDBF8C016B017A01822FA801475F5F4F89
:1009C000B8016A5F7F4F1FDF9B01482FD8011C963B
:1009D0008C91DA82C982FC82EB82FE82ED82288BC6
:1009E000398B4A8B813001F5CE01019694DC1D864E
:1009F0001F861E86D801ED91FC910088F189E02DBB
:100A0000BE016F5F7F4FC801099562960FB6F894DB
:100A1000DEBF0FBECDBFDF91CF911F910F91FF9031
:100A2000EF90DF90CF9008951C861B861A8619865A
:100A300018861F82DCCF90E080E00895FC01648777
:100A40000895FC01848590E00895FC0186859785D2
:100A5000089587FF09C08F7701F1813001F182305D
:100A600001F1833001F18FEF90E0FC01E45CFF4F76
:100A70002491FC01EA5CFF4FE491EE23B1F0F0E039
:100A8000EE0FFF1FE05DFF4FA591B491EC91E223C3
:100A900081E090E061F480E0089585E0E5CF82E0B8
:100AA000E3CF84E0E1CF83E0DFCF80E090E0089502
:100AB00090E0FC01E65DFF4F3491FC01E45CFF4FE8
:100AC0002491FC01EA5CFF4FE491EE23B9F033235B
:100AD00029F03130A1F48AB58F778ABDF0E0EE0FAE
:100AE000FF1FEC5DFF4FA591B4918FB7611118C046
:100AF000F894EC9120952E232C938FBF08953230DB
:100B000019F48AB58F7DE9CF333021F480B78F7D1A
:100B100080BFE4CF343011F78CB58F7D8CBDDECF34
:100B2000F894EC912E2BE8CFCF93DF9390E0FC016B
:100B3000E45CFF4F24918A5C9F4FFC0184918823E1
:100B4000D1F090E0880F991FFC01E25EFF4FA59164
:100B5000B491FC01EC5DFF4FC591D49161110EC0C1
:100B60009FB7F8948C91E22FE0958E238C93288187
:100B7000E223E8839FBFDF91CF9108958FB7F89468
:100B8000EC91E22BEC938FBFF6CFD3D21F920F9252
:100B90000FB60F9211242F933F938F939F93AF9390
:100BA000BF938091F1009091F200A091F300B09179
:100BB000F4003091EC0026E0230F2D3768F129E88E
:100BC000230F0396A11DB11D2093EC008093F1002B
:100BD0009093F200A093F300B093F4008091ED00A5
:100BE0009091EE00A091EF00B091F0000196A11D50
:100BF000B11D8093ED009093EE00A093EF00B093B1
:100C0000F000BF91AF919F918F913F912F910F90E5
:100C10000FBE0F901F9018950296A11DB11DD4CF45
:100C2000CF93DF93C1E1D1E082E38D831F861E86DF
:100C3000198A188A60E082E077DF82E08C83E3E241
:100C4000F1E08FEF808312821182148613868FEF7A
:100C50009FEFDC0187839087A187B287138214827C
:100C600015821682DF91CF91089583E08ABD83BFFC
:100C7000789489B7826089BF80E48CBDCFEFCDBD09
:100C800087EC80BF86E886B961E085E04DDF61E0F2
:100C900085E00EDF61E080E047DF61E080E008DFB3
:100CA00060E081E041DF60E082E03EDF88B38660A3
:100CB00088BB86B1856086B988EE93E09093200169
:100CC00080931F0186EF93E090932201809321018E
:100CD0008091DA00811156C01092C5001092C400B4
:100CE000C093C800C093C900C093CA00C093CB0092
:100CF000C093CC00C093CD0081E08093CE00809360
:100D0000CF001092D1001092D00080E797E190932D
:100D1000D3008093D20083E090E09093D50080933D
:100D2000D4001092D7001092D6001092C7001092F3
:100D3000C60080910B0190910C01892B31F482EC5B
:100D400090E090930C0180930B01E091C000F09132
:100D5000C100309721F082EC90E09583848382EC8F
:100D600090E09093C1008093C0001092D90010923F
:100D7000D8008CE790E09093C3008093C20081E09C
:100D80008093DA00BC9A82EE90E09093C500809345
:100D9000C40081E090E09093D1008093D0008091D6
:100DA000260190912701A0912801B0912901843C4E
:100DB00029E09207A105B10520F484EC99E0A0E0B8
:100DC000B0E08093260190932701A0932801B0936F
:100DD000290180E8809323018FEF8093E2008093C4
:100DE000E3008093E4007AD913E088248A9493E0A6
:100DF000992EA12CB12CC1E0D0E88091150129DEFB
:100E000001E0009709F400E02FB7F8944091F10059
:100E10005091F2006091F3007091F4002FBF209187
:100E20001401021741F04093170150931801609389
:100E3000190170931A01C0901701D0901801E09029
:100E40001901F0901A012A013B014C185D086E0847
:100E50007F08C0901601D12CF12CE12CC414D504CC
:100E6000E604F70490F420911101892BB1F52111CA
:100E70000CC0C093110140931B0150931C0160935F
:100E80001D0170931E01109212010093140181E064
:100E9000E0DDF090EB00892B09F083C060E0F110F9
:100EA00045C080916300833008F040C080E000DEE0
:100EB000C090E900D090EA000D2C000CEE08FF086D
:100EC000C701B601FCD961E080E0F2DDC701B601DF
:100ED000F6D960E080E0ECDDDACF2223B1F21092A7
:100EE000110180911B0190911C01A0911D01B091F5
:100EF0001E01481B590B6A0B7B0B4C3D554061058D
:100F0000710558F0C0931201E0912101F091220186
:100F1000309709F4BACF0995B8CF809112018111A9
:100F2000B4CFE0911F01F0912001F2CF80E0C0DD4D
:100F3000FF2079F280916300833058F617B987B1AA
:100F400087B9369A3699FECF84B165B1762F682F6E
:100F5000072E000C880B990B27E130E040E050E0B1
:100F600053D0A501940169D069013093E800209322
:100F7000E70060E080E09CDDF601EE0FFF1FE25726
:100F8000FF4FC080D1800D2C000CEE08FF08C70178
:100F9000B60195D961E080E08BDDC701B6018FD93C
:100FA00076CF61E080E084DDFF2009F426CFC09396
:100FB000E6008091E50080932301D093E200109237
:100FC000E300D093E4008AD8809162008F5F809321
:100FD0006200833009F011CF809160009091610030
:100FE0002091E500280F2093E500283C41F49195DD
:100FF00081959109909361008093600002C0222343
:10100000B1F310926200F9CEEE27FF27AA27BB2783
:1010100008C0A20FB31FE41FF51F220F331F441F88
:10102000551F969587957795679598F37040A9F722
:10103000009799F7BD01CF010895052E97FB16F48F
:1010400000940FD057FD05D014D007FC02D046F411
:1010500008C050954095309521953F4F4F4F5F4FB9
:10106000089590958095709561957F4F8F4F9F4F14
:101070000895A1E21A2EAA1BBB1BFD010DC0AA1FD9
:10108000BB1FEE1FFF1FA217B307E407F50720F0F1
:10109000A21BB30BE40BF50B661F771F881F991F6C
:1010A0001A9469F760957095809590959B01AC01B5
:1010B000BD01CF0108950024552704C0080E591F13
:1010C000880F991F009729F076956795B8F37105F9
:1010D000B9F7802D952F089597FB072E16F40094ED
:1010E00006D077FD08D00BD007FC05D03EF49095D4
:1010F00081959F4F0895709561957F4F0895AA1B24
:10110000BB1B51E107C0AA1FBB1FA617B70710F0F2
:10111000A61BB70B881F991F5A95A9F78095909524
:10112000BC01CD010895EE0FFF1F0590F491E02D55
:0E113000099481E090E0F89400C0F894FFCF9D
:10113E000100040300000000C505C505C505250511
:10114E009C0321051E051B0500000000C904650453
:10115E009F0325059C0321051E058801CE01FA007B
:10116E00A7007D006400540048003F0038003200A4
:10117E002E002A002700240021001F001D001B0046
:0E118E001A00190018001700160015001400B2
:00000001FF
